:100000000C942A000C943F000C943F000C943F0089
:100010000C943F000C943F000C943F000C943F0064
:100020000C943F000C943F000C943F000C943F0054
:100030000C943F000C943F000C943F000C943F0044
:100040000C943F000C943F000C943F000C943F0034
:100050000C943F0011241FBECFE5D8E0DEBFCDBF1A
:1000600010E0A0E6B0E0E2E0F7E002C005900D92FB
:10007000A63DB107D9F70E9434020C947F030C947B
:10008000000081B3806881BB089582B3806882BB21
:100090002FEF81EE94E0215080409040E1F700C0C6
:1000A000000082B38F7782BB089582B3806882BBE1
:1000B0002FEF8BE792E9215080409040E1F700C09C
:1000C000000082B38F7782BB0895E199FECF9FBB7A
:1000D0008EBB6DBB8CB384608CBB8CB382608CBBDD
:1000E0000895E199FECF9FBB8EBB8CB381608CBB22
:1000F0008DB3089584B3806F84BB8FEF85BB089563
:1001000085B38F7E85BB85B3806285BB85B38064F4
:1001100085BB85B3806885BB989B5CC0999B5CC0A0
:100120009A9B5CC09B9B5CC08FE19EE40197F1F7BA
:1001300000C0000085B3806185BB85B38F7D85BB22
:1001400085B3806485BB85B3806885BB989B4AC0B6
:10015000999B4AC09A9B4AC09B9B4AC08FE19EE4F0
:100160000197F1F700C0000085B3806185BB85B3BE
:10017000806285BB85B38F7B85BB85B3806885BB7B
:10018000989B38C0999B38C09A9B38C09B9B38C0BD
:100190008FE19EE40197F1F700C0000085B3806114
:1001A00085BB85B3806285BB85B3806485BB85B321
:1001B0008F7785BB989B26C0999B26C09A9B26C0AB
:1001C0009B9B26C08FE19EE40197F1F700C00000E1
:1001D0008FEF089587E3089588E3089589E30895EC
:1001E0008FE2089584E3089585E3089586E30895F2
:1001F0008AE2089581E3089582E3089583E30895F0
:100200008DE2089583E6089580E308958DE30895CF
:100210008BE208959BB394609BBB84FF04C09BB3A7
:1002200090619BBB03C09BB39F7E9BBB85FF04C0BB
:100230009BB390629BBB03C09BB39F7D9BBB86FF20
:1002400004C09BB390649BBB03C09BB39F7B9BBBD1
:10025000882324F49BB390689BBB03C09BB39F7718
:100260009BBB9BB398609BBBEFE9FFE03197F1F735
:1002700000C000009BB3977F9BBBEFE9FFE0319785
:10028000F1F700C0000080FF04C09BB390619BBBEE
:1002900003C09BB39F7E9BBB81FF04C09BB3906256
:1002A0009BBB03C09BB39F7D9BBB82FF04C09BB3E2
:1002B00090649BBB03C09BB39F7B9BBB83FF04C02D
:1002C0008BB380688BBB03C08BB38F778BBB8BB337
:1002D00088608BBB8FE99FE00197F1F700C00000B9
:1002E0008BB3877F8BBBEFE9FFE03197F1F700C05D
:1002F000000008959BB39B7F9BBB84FF04C09BB30E
:1003000090619BBB03C09BB39F7E9BBB85FF04C0DA
:100310009BB390629BBB03C09BB39F7D9BBB86FF3F
:1003200004C09BB390649BBB03C09BB39F7B9BBBF0
:10033000882324F49BB390689BBB03C09BB39F7737
:100340009BBB9BB398609BBBEFE9FFE03197F1F754
:1003500000C000009BB3977F9BBBEFE9FFE03197A4
:10036000F1F700C0000080FF04C09BB390619BBB0D
:1003700003C09BB39F7E9BBB81FF04C09BB3906275
:100380009BBB03C09BB39F7D9BBB82FF04C09BB301
:1003900090649BBB03C09BB39F7B9BBB83FF04C04C
:1003A0008BB380688BBB03C08BB38F778BBB8BB356
:1003B00088608BBB8FE99FE00197F1F700C00000D8
:1003C0008BB3877F8BBBEFE9FFE03197F1F700C07C
:1003D000000008958AB38C6F8ABB83E00E947A0183
:1003E0008FE79EE30197F1F700C0000083E00E94D1
:1003F0007A018FE79EE30197F1F700C0000083E0E8
:100400000E947A018FE79EE30197F1F700C0000098
:1004100082E00E947A0188E20E947A0181E00E94D3
:100420007A0186E00E947A018CE00E947A019FEFB7
:1004300029EF80E0915020408040E1F700C00000AB
:1004400008950F931F93CF938C01C0E003C00E94C7
:100450000A01CF5FF801EC0FF11D80818111F7CF08
:10046000CF911F910F910895CF93DF93CDB7DEB752
:1004700028970FB6F894DEBF0FBECDBF0E94EA01E9
:100480000E947A000E94410010E00EC0E12EF12C83
:10049000C70144960E947100E1E0F0E0EC0FFD1FFF
:1004A000EE0DFF1D80831F5F143080F3DD24D39495
:1004B000EE24E394EE2009F4ADC081E00E947A01BD
:1004C00080E690E00E9421020E9480008A3241F082
:1004D0000E9480008F3221F00E9480008033A1F7BB
:1004E0000E9480008A3209F48FC00E9480008F32FF
:1004F00009F056C081E00E947A018CE690E00E94EB
:1005000021020E945500F12C1BC00E9480008F3FE9
:10051000E1F30E9480000E940A010E9445000F2D15
:1005200010E00E948000E5E0F0E0EC0FFD1FE00F1E
:10053000F11F805380830E9480008F3FE1F7F39486
:1005400023E02F1510F781E00E947A0189E790E0FF
:100550000E9421020E9480008F3FE1F30E948000F0
:100560008F32C9F415C0812F90E0E5E0F0E0EC0F88
:10057000FD1FE80FF91F6081E1E0F0E0EC0FFD1FC7
:10058000E80FF91F608344960E9465001F5F01C059
:1005900010E0143040F30E9480008F3FE1F735C037
:1005A00081E00E947A0181E990E00E94210210E03E
:1005B0000FC00E9480008033E1F70E9480000E94FB
:1005C0000A010E9445000E9480008F3FE1F71F5FF3
:1005D000163078F310E00EC0812F90E0E1E0F0E0FB
:1005E000EC0FFD1FE80FF91F108260E044960E9497
:1005F00065001F5F143080F381E00E947A018CE96E
:1006000090E00E94210201C0E12C0E9480008F3FF7
:10061000E1F750CF81E00E947A0188EA90E00E94E1
:10062000210280EC0E947A0187E990E00E94210279
:10063000F12C1AC00E9480008F3FE1F38AE20E94F1
:100640000A010E9445000F2D10E00E948000E5E0A5
:10065000F0E0EC0FFD1FE00FF11F805380830E943C
:1006600080008F3FE1F7F39483E08F1518F720E0C7
:1006700017C0822F90E0E5E0F0E0EC0FFD1FE80FDF
:10068000F91F3081E1E0F0E0EC0FFD1FE80FF91FEA
:100690008081381303C0DD24D39401C0D12C2F5F97
:1006A000243038F391E0D91216C081E00E947A011B
:1006B00086EB90E00E9421022FEF89E698E121501D
:1006C00080409040E1F700C0000081E00E947A0184
:1006D000EE24E394EFCE81E00E947A0187EC90E073
:1006E0000E9421022FEF89E698E12150804090403E
:1006F000E1F700C0000081E00E947A01DBCEF894AF
:02070000FFCF29
:100702004C4F434B4552204F50454E005365742089
:100712004E65772050573A20005072657373202F30
:1007220020746F2073617665206368616E676573FC
:100732000052657365742070773A20005057206923
:1007420073207265736574004C4F434B45522043CE
:100752004C4F53454400636F72726563742070613D
:100762007373776F72640057726F6E672070617374
:0607720073776F72640052
:00000001FF
